:100000000C9470030C9498030C9498030C9498032C
:100010000C9498030C9498030C9498030C949803F4
:100020000C9498030C9498030C94AC070C941B0844
:100030000C9498030C9498030C9498030C949803D4
:100040000C9498030C9498030C9498030C949803C4
:100050000C9498030C9498030C9498030C944D0AF8
:100060000C9498030C9498030C9498030C949803A4
:100070000C9498030C9498030C9498030C94980394
:100080000C9498030C9498030C9498030C94980384
:100090000C9498030C9498030C9498030C94980374
:1000A0000C9498030C9498030C949803000000009F
:1000B000003E5B4F5B3E3E6B4F6B3E1C3E7C3E1CEE
:1000C000183C7E3C181C577D571C1C5E7F5E1C0034
:1000D000183C1800FFE7C3E7FF0018241800FFE7EB
:1000E000DBE7FF30483A060E2629792926407F05AE
:1000F0000507407F05253F5A3CE73C5A7F3E1C1CC4
:1001000008081C1C3E7F14227F22145F5F005F5F83
:1001100006097F017F006689956A6060606060946F
:10012000A2FFA29408047E040810207E2010080874
:100130002A1C08081C2A08081E101010100C1E0C7F
:100140001E0C30383E3830060E3E0E060000000011
:100150000000005F00000007000700147F147F14F8
:10016000242A7F2A1223130864623649562050003D
:1001700008070300001C2241000041221C002A1C29
:100180007F1C2A08083E0808008070300008080814
:100190000808000060600020100804023E51494534
:1001A0003E00427F400072494949462141494D3352
:1001B0001814127F1027454545393C4A49493141B9
:1001C000211109073649494936464949291E000087
:1001D00014000000403400000008142241141414DC
:1001E0001414004122140802015909063E415D59C8
:1001F0004E7C1211127C7F494949363E41414122D1
:100200007F4141413E7F494949417F090909013EFA
:10021000414151737F0808087F00417F4100204021
:10022000413F017F081422417F404040407F021C33
:10023000027F7F0408107F3E4141413E7F0909094A
:10024000063E4151215E7F09192946264949493216
:1002500003017F01033F4040403F1F2040201F3FDC
:100260004038403F63140814630304780403615961
:10027000494D43007F4141410204081020004141A3
:10028000417F04020102044040404040000307084F
:100290000020545478407F2844443838444444284B
:1002A000384444287F385454541800087E090218F2
:1002B000A4A49C787F0804047800447D400020407A
:1002C000403D007F1028440000417F40007C0478BE
:1002D00004787C080404783844444438FC18242406
:1002E0001818242418FC7C08040408485454542486
:1002F00004043F44243C4040207C1C2040201C3C03
:100300004030403C44281028444C9090907C4464F9
:10031000544C44000836410000007700000041368C
:10032000080002010204023C2623263C1EA1A16112
:10033000123A4040207A3854545559215555794144
:100340002154547841215554784020545579400C1B
:100350001E527212395555555939545454593955FC
:100360005454580000457C410002457D420001453F
:100370007C40F0292429F0F0282528F07C545545AC
:10038000002054547C547C0A097F4932494949323F
:100390003248484832324A4848303A4141217A3A54
:1003A00042402078009DA0A07D39444444393D401E
:1003B00040403D3C24FF2424487E4943662B2FFCCB
:1003C0002F2BFF0929F620C0887E09032054547979
:1003D000410000447D413048484A32384040227A4A
:1003E000007A0A0A727D0D19317D2629292F2826C7
:1003F0002929292630484D402038080808080808CF
:100400000808382F10C8ACBA2F102834FA00007B27
:10041000000008142A142222142A1408950022002D
:1004200095AA005500AAAA55AA55AA000000FF00E7
:10043000101010FF00141414FF001010FF00FF1024
:1004400010F010F0141414FC001414F700FF000056
:10045000FF00FF1414F404FC141417101F10101FD5
:10046000101F1414141F00101010F0000000001FC3
:10047000101010101F10101010F010000000FF10CE
:100480001010101010101010FF10000000FF1400CA
:1004900000FF00FF00001F10170000FC04F41414FC
:1004A0001710171414F404F40000FF00F7141414C8
:1004B00014141414F700F7141414171410101F1048
:1004C0001F141414F4141010F010F000001F101F6B
:1004D0000000001F14000000FC140000F010F010D9
:1004E00010FF10FF141414FF141010101F00000050
:1004F00000F010FFFFFFFFFFF0F0F0F0F0FFFFFF54
:100500000000000000FFFF0F0F0F0F0F38444438AA
:10051000447C2A2A3E147E02020606027E027E02E5
:1005200063554941633844443C04407E201E200604
:10053000027E020299A5E7A5991C2A492A1C4C7241
:1005400001724C304A4D4D303048784830BC625AC8
:10055000463D3E494949007E0101017E2A2A2A2A58
:100560002A44445F444440514A444040444A514034
:100570000000FF0103E080FF000008086B6B0836F5
:1005800012362436060F090F060000181800000066
:100590001010003040FF0101001F01011E00191D55
:1005A0001712003C3C3C3C0000000000F0F89C8E20
:1005B0008783878E9CF8F00000FEFF03030303038C
:1005C000070EFCF80000FEFF0303030303070EFC05
:1005D000F80000FFFF00000000000000FFFF000027
:1005E000FEFF8383838383C7EE7C380000F8FC0E14
:1005F00007030303070EFCF800003F7FE0C0808084
:10060000C0E07F3FFFFF01010101010101FFFF0089
:1006100000FFFF0C0C0C0C1C3E77E3C100007FFFB9
:10062000C0C0C0C0C0E0703F1F00001F3F70E0C0EE
:10063000C0C0E0703F1F00007FFFC1C1C1C1C1E366
:10064000773E1C00001F3F70E0C0C0C0E0703F1F3D
:10065000000000000001FFFF01000000D5F08D1434
:10066000A1C881CFD9F1AF2000080B00020202001F
:100670000009040000010202000005240010010529
:100680002401010104240206052406000107058156
:100690000310004009040100020A000000070502DF
:1006A0000240000007058302400000040309041211
:1006B000010002EF020140412336800001010203E4
:1006C0000141726475696E6F204C4C430041726445
:1006D00075696E6F204C656F6E6172646F000F0BF1
:1006E00011241FBECFEFDAE0DEBFCDBF11E0A0E0E6
:1006F000B1E0E0E1F1E202C005900D92A437B1074C
:10070000D9F729E0A4E7B1E001C01D92AC3FB207E0
:10071000E1F713E0C0E7D3E004C02197FE010E9497
:100720007B10CF36D107C9F70E94400B0C9486107E
:100730000C940000E5E9F5E0A0E0B8E000800EBC14
:100740008111012C1197A0FDFDCF0192B9F70DB4D5
:100750000895FC0180919405882311F13FB7F89426
:1007600082E08093E9002091F200822F90E0181639
:10077000190614F481E090E0882339F0289844E6C3
:10078000409393054091F1004083222339F020915A
:10079000F200211103C02BE62093E8003FBF08952B
:1007A0008FEF9FEF08952FB7F89483E08093E900CF
:1007B0009091E800892F807295FF04C09091F2001B
:1007C00080E4891B2FBF089580918B0581110DC096
:1007D00082E08093870584E08093880510928A05E3
:1007E0001092890581E080938B0587E895E0089554
:1007F000CF93DF931F92CDB7DEB76983DC01ED9114
:10080000FC910280F381E02D41E050E0BE016F5F7A
:100810007F4F09950F90DF91CF91089583E08093EA
:10082000E9008091F200882319F08AE38093E800C0
:1008300008950E94D30390E00895CF93DF931F9211
:10084000CDB7DEB7FC018485958597FD08C02FEFF5
:100850003FEF358724870F90DF91CF910895CE0128
:1008600001960E94A903019719F4898190E0F3CFC2
:100870008FEF9FEFF0CF0F931F93CF93DF931F92D4
:10088000CDB7DEB78C01FC018485958597FF0BC041
:10089000CE0101960E94A903019771F4898190E02D
:1008A000F80195878487F801848595850F90DF91FD
:1008B000CF911F910F9108958FEF9FEFF1CFFC0122
:1008C0008485958597FD0BC09FB7F89482E080934F
:1008D000E9008091F2009FBF90E0019608959FB7D4
:1008E000F89482E08093E9008091F2009FBF90E04D
:1008F0000895409181055091820520917F053091A6
:10090000800542175307B4F49091E8009570E1F325
:100910009091E80092FD19C08093F10080918105CB
:100920009091820501968F739927892B19F48EEF88
:100930008093E800809181059091820501969093C3
:1009400082058093810581E0089580E00895DF921B
:10095000EF92FF920F931F93CF93DF93D82E8A01CC
:10096000EB017B01E40EF51ECE15DF0559F0D7FE35
:1009700012C0FE0184910E94790421968111F4CF66
:100980000FEF1FEFC801DF91CF911F910F91FF90E3
:10099000EF90DF9008958881EECF0F931F93CF9350
:1009A000DF931F92CDB7DEB782E0898342E450E047
:1009B00069E676E080E80E94A7040E94E403DC0177
:1009C00012960D911C910115110589F0D801ED9138
:1009D000FC910280F381E02DBE016F5F7F4FC80163
:1009E000099597FD04C0F80100851185ECCF898138
:1009F0000F90DF91CF911F910F910895615030F0CA
:100A00002091F100FC0120830196F8CF289884E61C
:100A1000809393050895AF92BF92CF92DF92EF92A9
:100A2000FF920F931F93CF93DF936C017B018B0198
:100A3000040F151FEB015E01AE18BF08C017D107E8
:100A400059F06991D601ED91FC910190F081E02D72
:100A5000C6010995892B79F7C501DF91CF911F91C7
:100A60000F91FF90EF90DF90CF90BF90AF900895DF
:100A70003FB7F8948091750190917601A09177012C
:100A8000B091780126B5A89B05C02F3F19F00196BB
:100A9000A11DB11D3FBFBA2FA92F982F8827BC01D8
:100AA000CD01620F711D811D911D42E0660F771F00
:100AB000881F991F4A95D1F708958F929F92AF9200
:100AC000BF92CF92DF92EF92FF926B017C010E9466
:100AD00038054B015C01C114D104E104F104B9F003
:100AE0000E943805681979098A099B09683E734094
:100AF0008105910580F321E0C21AD108E108F108CF
:100B000088EE880E83E0981EA11CB11CE4CFFF90F4
:100B1000EF90DF90CF90BF90AF909F908F9008950F
:100B20008F929F92AF92BF92CF92DF92EF92FF92FD
:100B30000F931F93CF93DF936C017B018A01809108
:100B40001101882309F45CC080919405882309F47D
:100B500057C08091860580FF05C08091E0008260CB
:100B60008093E000E801B12C8AEFA82E93E0892E53
:100B70002AE3922E209711F4BB20D9F10E94D303CF
:100B800081110AC0AA94AA20D9F161E070E080E046
:100B900090E00E945D05EECF8C171D0611F00CF061
:100BA0008C2F9FB7F8948092E9002091E80025FDF2
:100BB00002C09FBFDFCF282F30E0C21BD30BF7014D
:100BC000815020F041914093F100FACFE20EF31EE4
:100BD000BB2021F09092E800B12CEBCF8091E8008F
:100BE00085FDE7CF9092E800BB24B394209709F3EA
:100BF000F3CF5D9884E680938505101611063CF0CE
:100C000081E090E0F6019383828310E000E0C80168
:100C1000DF91CF911F910F91FF90EF90DF90CF90D8
:100C2000BF90AF909F908F9008952D9A0895BC012A
:100C300090E080E00C945D058FB18095807F669B8D
:100C400088601C9B8460089520E191E061FD94E040
:100C500060FD990F62FD9295687F269FD001112457
:100C6000A80FAB56BA4F8C9140FF03C0892B8C93D1
:100C7000089590958923FBCF2F923F924F925F92D8
:100C80006F927F928F929F92AF92BF92CF92DF929C
:100C9000EF92FF920F931F93CF93DF93CDB7DEB701
:100CA00028970FB6F894DEBF0FBECDBF9E838D830D
:100CB0006A3061F5DC0155968C91B8E08B9F90010C
:100CC0001124ED81FE8181899289820F931F928B7D
:100CD000818B108A178681E090E028960FB6F894F1
:100CE000DEBF0FBECDBFDF91CF911F910F91FF905F
:100CF000EF90DF90CF90BF90AF909F908F907F90BC
:100D00006F905F904F903F902F9008956D3019F342
:100D10002D813E8138872F83D9011F960D911C911B
:100D20005097003811050CF07CC05196AD90BC90E6
:100D3000B0E4AB16B1040CF074C0F901258825E0CD
:100D4000C801229E800D911D1124181619060CF061
:100D500068C0622C712CC30133E0880F991F3A954B
:100D6000E1F78A0D9B1D181619060CF05AC0F4897C
:100D7000FB83AF81B8855396BC91BC83629FB00161
:100D80001124FB01E455FF4F2F011982F2018491D8
:100D9000F981F53009F480E0450128E02A83A82F85
:100DA000B0E0BE83AD833C8080FF3B80311004C047
:100DB000BB81EC81BE17F9F078018E2D801B821566
:100DC000D0F4D12CC12CC21490F4F0E8EF16F10449
:100DD00050F4B601680D791D6034710520F4432D7F
:100DE000C7010E9424062FEFC21AD20AECCF3FEFB0
:100DF000E31AF30AE2CF8D819E81959587959A81BA
:100E000091509A83860C971C9111C9CFA981AF5F2D
:100E1000A983BFEF4B1A5B0A060D171DA63009F018
:100E2000B5CFEF81F8852589422F50E087859089DD
:100E3000F6E02F9F800D911D1124AF81B88550964B
:100E40009C938E931F9756962C915697222309F4C4
:100E500042CF6AEF64039001659F300D1124205842
:100E60003F4F281739070CF036CFED91FC911197C1
:100E70000190F081E02D6AE0CD0109952CCF089515
:100E8000089590E080E00895EEE7F1E090E080E0E2
:100E900028E532E081329105D8F431832083019630
:100EA0003296811542E09407A9F783E090E0909391
:100EB00047028093460282E090E09093490280933B
:100EC000480281E090E090934B0280934A0208959B
:100ED000AC014F71552741155105F9F24F315105BC
:100EE000E1F2813E41E09407C0F611821082D7CF33
:100EF000CF92DF92EF92FF920E94AA0F21E032E0A0
:100F000040E050E00E941810615071098109910978
:100F1000CC24C39492E0D92EE12CF12CFB01EE0FEE
:100F2000FF1FE258FE4F80819181892B59F00E946A
:100F3000AA0FA70196010E9418106150710981093A
:100F40009109ECCFCB01FF90EF90DF90CF90089507
:100F50000C9402100E9481101F920F920FB60F92F4
:100F600011248F939F938091E1009091E100937FF2
:100F70009093E10083FF0FC01092E90091E09093FD
:100F8000EB001092EC0092E39093ED001092940528
:100F900098E09093F00082FF22C093E09093E900E4
:100FA0009091F200992319F09AE39093E8009091C0
:100FB0008505992341F09091850591509093850581
:100FC000911101C05D9A90919305992341F0909100
:100FD0009305915090939305911101C0289A84FF35
:100FE00018C08091E2008E7E81608093E200809143
:100FF000E1008F7E8093E100809186058E7E806186
:10100000809386059F918F910F900FBE0F901F9038
:10101000189580FFF7CF8091E2008E7E80618093EB
:10102000E2008091E1008E7E8093E1008091860550
:101030008E7E8160E5CF1F920F920FB60F92112422
:10104000CF92DF92EF92FF920F931F932F933F93D4
:101050004F935F936F937F938F939F93AF93BF93C0
:10106000EF93FF93CF93DF93CDB7DEB76C97DEBFDF
:10107000CDBF1092E9008091E80083FF25C068E0B1
:10108000CE0145960E94FE0482EF8093E8008D8990
:1010900087FF39C09091E80090FFFCCF982F9076A1
:1010A00009F034C19E894F89588D2F89F88C911190
:1010B00031C0803861F5809184058093F1001092F1
:1010C000F1008EEF8093E8006C960FB6F894DEBFC7
:1010D0000FBECDBFDF91CF91FF91EF91BF91AF9147
:1010E0009F918F917F916F915F914F913F912F9140
:1010F0001F910F91FF90EF90DF90CF900F900FBE58
:101100000F901F9018959EEF9093E800C7CF109214
:10111000F100D5CF913059F48111D3CF4130510531
:1011200081F6809184058D7F80938405CACF9330AA
:1011300049F48111C6CF4130510519F680918405DB
:101140008260F2CF953041F48091E80080FFFCCFBF
:1011500020682093E300B5CF963009F0A9C00B8D2D
:101160001C8D22E01092E9001092820510928105F8
:10117000F2122EC01092800510927F050E94CD04BD
:101180001F8299E09983FA8291E09E8390EA988782
:101190009AEF99872091810530918205275F3F4F13
:1011A0003C832B838D831092E9001092820510926C
:1011B00081051093800500937F0549E050E0BE0152
:1011C0006F5F7F4F80E00E94A7040E94CD0479CF1B
:1011D0001093800500937F050E94E403DC011296C2
:1011E0000D911C910115110509F451C1D801ED9122
:1011F000FC910480F581E02DBE016B5E7F4FC8013C
:101200000995009709F03EC1F80100851185EACFE4
:10121000F3E0FF120EC08F89882309F440C08230AA
:1012200061F440E860E18DEC96E00E94970A81113C
:1012300048CF81E28093EB0047CF813029F440E82A
:101240006BE081EC96E0F1CF833099F70E94E403E4
:10125000DC011296ED90FC908E010F5F1F4F68012C
:10126000E114F10479F0D701ED91FC910680F7814A
:10127000E02DB801C7010995080F111DF701E084A1
:10128000F184EECFD8011C92F60101900020E9F71D
:101290003197BF016C197D0940E0C601C6CF6BEAEA
:1012A00076E0FB01449150E080E80E94A70409CF5A
:1012B000973009F4BECF983021F481E08093F1009B
:1012C00000CF993009F0FDCE837009F0B2CFE7E18D
:1012D000F1E081E031E096E32191222371F08093E7
:1012E000E9003093EB00DF0111972C912093EC0083
:1012F0009093ED008F5F873079F78EE78093EA0057
:101300001092EA008F8980939405DBCE8B8D9C8DA3
:101310001092E90010928205109281059093800549
:1013200080937F05898D811192C08E899D89913A24
:1013300049F4813209F07DCF47E050E06AE071E086
:1013400080E0B3CF913209F074CF833269F48F8992
:10135000988DB0E0A0E08093060190930701A093E0
:101360000801B0930901ADCE803269F48091E800A4
:1013700082FFFCCF67E08AE091E00E94FE048BEFE1
:101380008093E8009ECE823209F09BCE8F898093B5
:101390001101EEEFFFE7859194918B3F9C4D51F148
:1013A000E0E0F8E080910A0190910B01A0910C011E
:1013B000B0910D01803B9440A105B105F1F48091FD
:1013C000110180FD1AC0EE3F8AE0F80789F587E732
:1013D00097E791838083809160008093830588E103
:1013E0009BE00FB6F894A895809360000FBE909391
:1013F000600067CEEEEFFAE0D5CF8081918187372C
:10140000974709F05ECEA89580916000886180932F
:1014100060008091830580936000EE3F2AE0F20730
:1014200089F08091FE0A9091FF0A9183808349CED2
:10143000808191818737980751F29093FF0A8093BA
:10144000FE0AC5CF1092FF0A1092FE0A3ACE0E9401
:10145000E403DC0112960D911C910115110509F4AC
:10146000E8CED801ED91FC910190F081E02DBE0114
:101470006B5E7F4FC8010995811123CEF80100856D
:101480001185EBCF181619060CF41BCED2CEF1E065
:10149000FF12BECE6FEA76E004CF1F920F920FB616
:1014A0000F9211242F933F938F939F93AF93BF93EA
:1014B0008091790190917A01A0917B01B0917C019A
:1014C0003091740123E0230F2D3758F50196A11DAB
:1014D000B11D209374018093790190937A01A093B8
:1014E0007B01B0937C018091750190917601A09170
:1014F0007701B09178010196A11DB11D809375010E
:1015000090937601A0937701B0937801BF91AF914A
:101510009F918F913F912F910F900FBE0F901F9031
:10152000189526E8230F0296A11DB11DD2CFEF9288
:10153000FF920F931F93CF93DF93F82E192FE62E70
:10154000042F81E0860F880F0E94790483E00E94B7
:101550007904CF2DD12FEC0EFD2EF11CCE15DF0519
:10156000B9F007FF13C0FE0184910E947904182F7F
:1015700080E00E947904812321968111EFCFDF91D1
:10158000CF911F910F91FF90EF9008958881EDCF3B
:1015900081E0F5CF0F931F93CF93DF938C0181E010
:1015A00090E00E94A80780FF32C08AE090E00E948D
:1015B000A8079FEF980F9E3F50F522E330E0D80137
:1015C00050963C932E931F9728E330E052963C931D
:1015D0002E935197CBE0D0E0D801ED91FC91019092
:1015E000F081E02D682FC8010995CE010E94A8075F
:1015F0002196C131D10581F780E00E949A0388EEDF
:1016000093E0DF91CF911F910F910C941706DF911A
:10161000CF911F910F91089504970C94CA0AE5E9A0
:10162000F9E01382128288EE93E0A0E0B0E08483B8
:101630009583A683B78381E291E0918380838FEFC6
:101640009FEF95878487E5EEF9E013821282118679
:10165000128680E1838710861782158683E391E0E6
:101660009183808381E491E095838483108A178637
:10167000128A118A81E0838B148A858B168A0895D9
:10168000CF93DF93CDB7DEB7A3970FB6F894DEBF45
:101690000FBECDBF789484B5826084BD84B581606F
:1016A00084BD85B5826085BD85B5816085BD80912D
:1016B0006E00816080936E001092810080918100A5
:1016C000826080938100809181008160809381009D
:1016D0008091800081608093800080919100826081
:1016E000809391008091910081608093910080911E
:1016F00090008160809390008091C100846080930D
:10170000C1008091C10082608093C1008091C100BE
:1017100081608093C1008091C30081608093C30089
:101720008091C00082608093C0008091C20081607F
:101730008093C20080917A00846080937A008091C7
:101740007A00826080937A0080917A008160809331
:101750007A0080917A00806880937A0010929405D4
:1017600010928405109286058091D7008160809345
:10177000D70080EA8093D80089B5806189BD89B59A
:10178000826089BD09B400FEFDCF61E070E080E0B9
:1017900090E00E945D058091D8008F7C80618093ED
:1017A000D8008091E000807F8093E0008091E1008C
:1017B0008E7E8093E1008DE08093E200559A209A1E
:1017C00081EC80937C0085B1806F85B984B1877E80
:1017D00084B984B1876E84B95E9A5F988AB1806D4E
:1017E0008AB9769A6E9881B3806F81BB899880B3ED
:1017F0008D7080BB80E58CBD81E08DBD85E090E083
:101800000E9417065F9A85E090E00E9417065E9896
:101810005C98ECE5F6E089E696E024912EBD0000A8
:101820000DB407FEFDCF31968E179F07B1F75C9A76
:1018300081E88093640080916500816080936500F9
:1018400080E00E949A030E941C0687FF15C05C98E6
:1018500085EA8EBD00000DB407FEFDCF5C9A2E9880
:101860002F982D988091640080628093640081E0BD
:1018700083BF889513BEFCCF0E941C0682FF48C020
:101880002D980E941C0684788438E1F40E94150685
:1018900088EC90E00E9417062F9882E090E00E946A
:1018A00002108F3F29F06FEF82E090E00E940A1053
:1018B00084EF91E00E9417062F9A0E941C068478FC
:1018C0008438D9F30E941C0684718431E1F40E94AB
:1018D000150688EC90E00E9417062E9882E090E0B2
:1018E0000E940210882329F060E082E090E00E94CC
:1018F0000A1084EF91E00E9417062E9A0E941C069F
:1019000084718431D9F388EC90E00E941706B4CF3B
:101910000E94150682E090E00E94A807882309F43F
:101920007DC03E9A3F9A81E090E00E94A807282F50
:101930002470722E81FF0FC021112E9800EF1FEF2F
:10194000E8E0EE2EF12C0E941C0686FF6AC02E9A5B
:101950002F9A0E94150682E390E00E9417060E94CB
:101960001C068111F8CF88EC8093F009109290004A
:101970008AE0809391000E94440780917E05813027
:1019800061F50E941C0686FF07C080910501803228
:1019900019F080E4809305010E941C0685FF07C0B2
:1019A00080910501803419F0B0E2B09305010E94E6
:1019B0001C0687FF07C080910501803119F0E0E81F
:1019C000E09305010E941C0684FF07C08091050179
:1019D000803819F0F0E1F09305018FB7F894409149
:1019E000790150917A0160917B0170917C018FBFE8
:1019F0008091F109242F281B822F9091F2099923BD
:101A000009F4A4C02093F3091092F20920E030E019
:101A1000232B09F4B2CF0E940000AFCF3E983F982D
:101A200082CF772029F00430110511F42E9A2F98D7
:101A300081E00E949A03980117FF04C022273327F0
:101A4000201B310B27703327C80117FD079673E061
:101A5000959587957A95E1F717FF05C00197A7013E
:101A6000421B530B9A01AC015695542F44275795AE
:101A700047954B565A4FB12CA12C2701421A530AB5
:101A80008F3F6FEF96070CF43AC06A01A4E9CA0EC3
:101A9000D11CDA0170E060E0F501E455FA4F4F0126
:101AA0008F3F980781F0F401E60FF71FE491022EB3
:101AB00001C0EE0F0A94EAF75496FC915497EF2B6D
:101AC0005496EC9354972115310581F0F401E60FFB
:101AD000F71FE491F0E01F01042C02C03594279415
:101AE0000A94E2F7F6016080262820826F5F7F4F1C
:101AF000FFEFCF1ADF0A11966835710589F6019656
:101B000068E5A60EB11C40585F4FA0EBAA16B104C1
:101B100009F0B6CF80E00E949A038FE090E00E9427
:101B200017060F5F1F4F0931110509F00CCF772001
:101B300011F02F9A2D9880E991E00E9417060E94DB
:101B4000150685EE99E00E94CA0A05CF9091F0092A
:101B5000291748F48F5F891708F058CF81E083BFB9
:101B6000889513BE53CF81E08093F2094093F10929
:101B70008091EC099091ED0901969093ED09809385
:101B8000EC0980917D01882339F0815080937D019B
:101B9000811102C01092900080E0E5E9F5E081112A
:101BA0008FEF002481938193819381930394D1F7E4
:101BB0001092F7091092F6091092F5091092F409A3
:101BC0008091EE098093EF090E941C068093EE0934
:101BD00080917E05813009F456C038F0823009F4D6
:101BE00013C180E00E949A0311CF4AE150E063E400
:101BF00071E085EE99E00E940B058091EF0983FD6D
:101C0000F0CF8091EE0983FFECCF809164008E7F4E
:101C10008093640080917A00806480937A00809140
:101C20007A0086FDFCCF00917800109179000E9427
:101C3000380530E020E0980111270027600F711F60
:101C4000821F931F2091640021602093640061151E
:101C500071058105910511F00E94F90F11E01093B3
:101C60007D0180E4809390004CEE55E05093990004
:101C7000409398000E94780790930101809300019F
:101C800010937E05AECF80910201909103012091C7
:101C90000501203271F108F58096203119F180910B
:101CA000020190910301FC01EE0FFF1FE258FE4F6D
:101CB000C080D180C114D104F1F082E080937E0510
:101CC00083E080937D0180E48093900087E893E136
:101CD000909399008093980084CF203441F08097AE
:101CE0002038E9F69093030180930201D8CF019642
:101CF000F9CF0197F7CFA1E0B0E0B183A0832091A5
:101D000000013091010182179307B9F48091040119
:101D10008F5F8093040181E080937D0180E4809354
:101D20009000ECEEF5E0F0939900E09398000E94AB
:101D3000780790930101809300018EE7282E81E0BF
:101D4000382E94E0492E512C9201245031093BA3A6
:101D50002AA37101360110E000E0F7018081918132
:101D6000883532E0930781F0009771F020910201ED
:101D7000309103016216730639F02091040128178F
:101D8000190621F511821082B2E0EB0EF11C808160
:101D90009181F80134964F01892B39F4809100012B
:101DA0009091010168167906C1F480169106A9F098
:101DB000AAA0BBA04A145B0469F041E0B501C801C8
:101DC0000E942406FFEFAF1ABF0AF4CF0196918359
:101DD0008083DACF0F5F1F4FE8CF2FEF621A720AAE
:101DE00084010038110509F0B8CF30E2C30ED11CD0
:101DF00044E0440E511C50E4250E311CC11462E035
:101E0000D60609F0A1CFEDCE44E150E06EE571E0D9
:101E100085EE99E00E940B052091040130E050E02E
:101E200040E019A28E010F5D1F4FCA01B9012AE0DF
:101E300030E040E050E00E944A10605DD8016E93AF
:101E40008D01211531054105510579F7109769F08C
:101E5000FD0101900020E9F73197AF014A1B5B0BB0
:101E6000BD0185EE99E00E940B058091EF0983FD8D
:101E7000B8CE8091EE0983FFB4CE0E94440783E080
:101E80008093040180E480930501E6E6F0E0F0939E
:101E90000301E09302010E94AA0F21E032E040E03A
:101EA00050E00E94181061507109810991097093E6
:101EB00001016093000110927E0593CE8F929F9254
:101EC000AF92BF92CF92DF92EF92FF92CF93DF93C8
:101ED000EC01688179818A819B8161157105810599
:101EE000910521F464E279ED8BE597E02DE133EF84
:101EF00041E050E00E94181049015A019B01AC01D9
:101F0000A7EAB1E40E9437106B017C01ACEEB4EF9C
:101F1000A50194010E944510C60ED71EE81EF91EA9
:101F2000F7FE06C081E0C81AD108E10880E8F80A87
:101F3000C882D982EA82FB82C701B6019F77DF910E
:101F4000CF91FF90EF90DF90CF90BF90AF909F9098
:101F50008F9008958F929F92AF92BF92CF92DF920F
:101F6000EF92FF9260911201709113018091140120
:101F700090911501611571058105910521F464E2C7
:101F800079ED8BE597E02DE133EF41E050E00E94E1
:101F9000181049015A019B01AC01A7EAB1E40E9463
:101FA00037106B017C01ACEEB4EFA50194010E94E7
:101FB0004510C60ED71EE81EF91EF7FE06C081E0CA
:101FC000C81AD108E10880E8F80AC0921201D0923C
:101FD0001301E0921401F0921501C701B6019F7739
:101FE000FF90EF90DF90CF90BF90AF909F908F9039
:101FF00008956093120170931301809314019093DC
:1020000015010895F999FECF92BD81BDF89A9927DF
:1020100080B50895262FF999FECF1FBA92BD81BDD4
:1020200020BD0FB6F894FA9AF99A0FBE019608955A
:10203000052E97FB1EF400940E942F1057FD07D029
:102040000E944A1007FC03D04EF40C942F105095B8
:102050004095309521953F4F4F4F5F4F0895909594
:102060008095709561957F4F8F4F9F4F08950E9487
:102070006C10A59F900DB49F900DA49F800D911D95
:1020800011240895B7FF0C9437100E943710821B5B
:10209000930B0895A1E21A2EAA1BBB1BFD010DC0D4
:1020A000AA1FBB1FEE1FFF1FA217B307E407F50708
:1020B00020F0A21BB30BE40BF50B661F771F881FE4
:1020C000991F1A9469F760957095809590959B017A
:1020D000AC01BD01CF010895A29FB001B39FC00123
:1020E000A39F700D811D1124911DB29F700D811D44
:1020F0001124911D0895EE0FFF1F0590F491E02D1E
:10210000099481E090E0F8940C948610F894FFCF45
:102110002C0166000340FFFFFFFF00E1000000000C
:1021200000000100000000C18081000000000000EC
:1021300000F803900519040E045F041D043B04001D
:102140000000003C060B0541074007CA0AFCFF00DF
:10215000000C0B536E616B65210A534E414B4521B8
:10216000210A534E414141414B4545212100596FC0
:1021700075206C6F73740A596F75722053636F7298
:04218000653A0000BC
:00000001FF
